{
  "abi": [
    {
      "inputs": [],
      "stateMutability": "nonpayable",
      "type": "constructor"
    },
    {
      "anonymous": false,
      "inputs": [
        {
          "indexed": false,
          "internalType": "address",
          "name": "account",
          "type": "address"
        },
        {
          "indexed": false,
          "internalType": "bytes32",
          "name": "image_id",
          "type": "bytes32"
        },
        {
          "indexed": false,
          "internalType": "bytes",
          "name": "input",
          "type": "bytes"
        },
        {
          "indexed": false,
          "internalType": "address",
          "name": "callback_contract",
          "type": "address"
        },
        {
          "indexed": false,
          "internalType": "bytes4",
          "name": "function_selector",
          "type": "bytes4"
        },
        {
          "indexed": false,
          "internalType": "uint64",
          "name": "gas_limit",
          "type": "uint64"
        }
      ],
      "name": "CallbackRequest",
      "type": "event"
    },
    {
      "inputs": [
        {
          "components": [
            {
              "internalType": "address",
              "name": "callback_contract",
              "type": "address"
            },
            {
              "internalType": "bytes32[]",
              "name": "journal_inclusion_proof",
              "type": "bytes32[]"
            },
            {
              "internalType": "bytes",
              "name": "payload",
              "type": "bytes"
            },
            {
              "internalType": "uint64",
              "name": "gas_limit",
              "type": "uint64"
            }
          ],
          "internalType": "struct BonsaiRelayContract.Callback[]",
          "name": "callbacks",
          "type": "tuple[]"
        }
      ],
      "name": "invoke_callbacks",
      "outputs": [
        {
          "internalType": "bool[]",
          "name": "invocation_results",
          "type": "bool[]"
        }
      ],
      "stateMutability": "nonpayable",
      "type": "function"
    },
    {
      "inputs": [],
      "name": "owner",
      "outputs": [
        {
          "internalType": "address",
          "name": "",
          "type": "address"
        }
      ],
      "stateMutability": "view",
      "type": "function"
    },
    {
      "inputs": [
        {
          "internalType": "bytes32",
          "name": "image_id",
          "type": "bytes32"
        },
        {
          "internalType": "bytes",
          "name": "input",
          "type": "bytes"
        },
        {
          "internalType": "address",
          "name": "callback_contract",
          "type": "address"
        },
        {
          "internalType": "bytes4",
          "name": "function_selector",
          "type": "bytes4"
        },
        {
          "internalType": "uint64",
          "name": "gas_limit",
          "type": "uint64"
        }
      ],
      "name": "requestCallback",
      "outputs": [],
      "stateMutability": "nonpayable",
      "type": "function"
    }
  ],
  "bytecode": {
    "object": "0x608060405234801561001057600080fd5b50336000806101000a81548173ffffffffffffffffffffffffffffffffffffffff021916908373ffffffffffffffffffffffffffffffffffffffff160217905550610b0f806100606000396000f3fe608060405234801561001057600080fd5b50600436106100415760003560e01c80631497491f146100465780638da5cb5b14610076578063e80802a214610094575b600080fd5b610060600480360381019061005b91906103cc565b6100b0565b60405161006d91906104e3565b60405180910390f35b61007e6102ee565b60405161008b9190610546565b60405180910390f35b6100ae60048036038101906100a991906106b1565b610312565b005b606060008054906101000a900473ffffffffffffffffffffffffffffffffffffffff1673ffffffffffffffffffffffffffffffffffffffff163373ffffffffffffffffffffffffffffffffffffffff1614610140576040517f08c379a0000000000000000000000000000000000000000000000000000000008152600401610137906107a8565b60405180910390fd5b8282905067ffffffffffffffff81111561015d5761015c6107c8565b5b60405190808252806020026020018201604052801561018b5781602001602082028036833780820191505090505b50905060005b838390508110156102e7578383828181106101af576101ae6107f7565b5b90506020028101906101c19190610835565b60000160208101906101d3919061085d565b73ffffffffffffffffffffffffffffffffffffffff168484838181106101fc576101fb6107f7565b5b905060200281019061020e9190610835565b6060016020810190610220919061088a565b67ffffffffffffffff1685858481811061023d5761023c6107f7565b5b905060200281019061024f9190610835565b806040019061025e91906108b7565b60405161026c929190610959565b60006040518083038160008787f1925050503d80600081146102aa576040519150601f19603f3d011682016040523d82523d6000602084013e6102af565b606091505b50508282815181106102c4576102c36107f7565b5b6020026020010181151515158152505080806102df906109ab565b915050610191565b5092915050565b60008054906101000a900473ffffffffffffffffffffffffffffffffffffffff1681565b7f105b7c9dbbc865638cd7873341700bcf4c62dfc9a4f221425b56fde3408f6a853387878787878760405161034d9796959493929190610a6f565b60405180910390a1505050505050565b600080fd5b600080fd5b600080fd5b600080fd5b600080fd5b60008083601f84011261038c5761038b610367565b5b8235905067ffffffffffffffff8111156103a9576103a861036c565b5b6020830191508360208202830111156103c5576103c4610371565b5b9250929050565b600080602083850312156103e3576103e261035d565b5b600083013567ffffffffffffffff81111561040157610400610362565b5b61040d85828601610376565b92509250509250929050565b600081519050919050565b600082825260208201905092915050565b6000819050602082019050919050565b60008115159050919050565b61045a81610445565b82525050565b600061046c8383610451565b60208301905092915050565b6000602082019050919050565b600061049082610419565b61049a8185610424565b93506104a583610435565b8060005b838110156104d65781516104bd8882610460565b97506104c883610478565b9250506001810190506104a9565b5085935050505092915050565b600060208201905081810360008301526104fd8184610485565b905092915050565b600073ffffffffffffffffffffffffffffffffffffffff82169050919050565b600061053082610505565b9050919050565b61054081610525565b82525050565b600060208201905061055b6000830184610537565b92915050565b6000819050919050565b61057481610561565b811461057f57600080fd5b50565b6000813590506105918161056b565b92915050565b60008083601f8401126105ad576105ac610367565b5b8235905067ffffffffffffffff8111156105ca576105c961036c565b5b6020830191508360018202830111156105e6576105e5610371565b5b9250929050565b6105f681610525565b811461060157600080fd5b50565b600081359050610613816105ed565b92915050565b60007fffffffff0000000000000000000000000000000000000000000000000000000082169050919050565b61064e81610619565b811461065957600080fd5b50565b60008135905061066b81610645565b92915050565b600067ffffffffffffffff82169050919050565b61068e81610671565b811461069957600080fd5b50565b6000813590506106ab81610685565b92915050565b60008060008060008060a087890312156106ce576106cd61035d565b5b60006106dc89828a01610582565b965050602087013567ffffffffffffffff8111156106fd576106fc610362565b5b61070989828a01610597565b9550955050604061071c89828a01610604565b935050606061072d89828a0161065c565b925050608061073e89828a0161069c565b9150509295509295509295565b600082825260208201905092915050565b7f44656e6965640000000000000000000000000000000000000000000000000000600082015250565b600061079260068361074b565b915061079d8261075c565b602082019050919050565b600060208201905081810360008301526107c181610785565b9050919050565b7f4e487b7100000000000000000000000000000000000000000000000000000000600052604160045260246000fd5b7f4e487b7100000000000000000000000000000000000000000000000000000000600052603260045260246000fd5b600080fd5b600080fd5b600080fd5b60008235600160800383360303811261085157610850610826565b5b80830191505092915050565b6000602082840312156108735761087261035d565b5b600061088184828501610604565b91505092915050565b6000602082840312156108a05761089f61035d565b5b60006108ae8482850161069c565b91505092915050565b600080833560016020038436030381126108d4576108d3610826565b5b80840192508235915067ffffffffffffffff8211156108f6576108f561082b565b5b60208301925060018202360383131561091257610911610830565b5b509250929050565b600081905092915050565b82818337600083830152505050565b6000610940838561091a565b935061094d838584610925565b82840190509392505050565b6000610966828486610934565b91508190509392505050565b7f4e487b7100000000000000000000000000000000000000000000000000000000600052601160045260246000fd5b6000819050919050565b60006109b6826109a1565b91507fffffffffffffffffffffffffffffffffffffffffffffffffffffffffffffffff82036109e8576109e7610972565b5b600182019050919050565b6109fc81610561565b82525050565b600082825260208201905092915050565b6000601f19601f8301169050919050565b6000610a308385610a02565b9350610a3d838584610925565b610a4683610a13565b840190509392505050565b610a5a81610619565b82525050565b610a6981610671565b82525050565b600060c082019050610a84600083018a610537565b610a9160208301896109f3565b8181036040830152610aa4818789610a24565b9050610ab36060830186610537565b610ac06080830185610a51565b610acd60a0830184610a60565b9897505050505050505056fea2646970667358221220c343c874a38fd10f9d02de1ce67851e0361f461a9f6b0467811ec0f6338918f964736f6c63430008120033",
    "linkReferences": {}
  },
  "methodIdentifiers": {
    "invoke_callbacks((address,bytes32[],bytes,uint64)[])": "1497491f",
    "owner()": "8da5cb5b",
    "requestCallback(bytes32,bytes,address,bytes4,uint64)": "e80802a2"
  },
  "id": 0
}