{
  "abi": [
    {
      "inputs": [
        {
          "internalType": "bytes32",
          "name": "image_id",
          "type": "bytes32"
        },
        {
          "internalType": "bytes32",
          "name": "journal_hash",
          "type": "bytes32"
        },
        {
          "internalType": "bytes32[]",
          "name": "proof",
          "type": "bytes32[]"
        }
      ],
      "name": "verify",
      "outputs": [
        {
          "internalType": "bool",
          "name": "",
          "type": "bool"
        }
      ],
      "stateMutability": "view",
      "type": "function"
    }
  ],
  "bytecode": {
    "object": "0x608060405234801561001057600080fd5b50610219806100206000396000f3fe608060405234801561001057600080fd5b506004361061002b5760003560e01c80633423e54814610030575b600080fd5b61004a60048036038101906100459190610113565b610060565b60405161005791906101a2565b60405180910390f35b600060019050949350505050565b600080fd5b600080fd5b6000819050919050565b61008b81610078565b811461009657600080fd5b50565b6000813590506100a881610082565b92915050565b600080fd5b600080fd5b600080fd5b60008083601f8401126100d3576100d26100ae565b5b8235905067ffffffffffffffff8111156100f0576100ef6100b3565b5b60208301915083602082028301111561010c5761010b6100b8565b5b9250929050565b6000806000806060858703121561012d5761012c61006e565b5b600061013b87828801610099565b945050602061014c87828801610099565b935050604085013567ffffffffffffffff81111561016d5761016c610073565b5b610179878288016100bd565b925092505092959194509250565b60008115159050919050565b61019c81610187565b82525050565b60006020820190506101b76000830184610193565b9291505056fea2646970667358221220200c2f4afd307a61ea517c6045a0eb867e67281c260cd4c346e64a937792b81464736f6c637828302e382e31392d646576656c6f702e323032332e322e31382b636f6d6d69742e39373365646131370059",
    "linkReferences": {}
  },
  "methodIdentifiers": {
    "verify(bytes32,bytes32,bytes32[])": "3423e548"
  },
  "id": 0
}