{
  "abi": [
    {
      "inputs": [
        {
          "internalType": "bytes32",
          "name": "_image_id",
          "type": "bytes32"
        },
        {
          "internalType": "contract Proxy",
          "name": "_bonsai_proxy",
          "type": "address"
        }
      ],
      "stateMutability": "nonpayable",
      "type": "constructor"
    },
    {
      "inputs": [
        {
          "internalType": "uint256",
          "name": "number",
          "type": "uint256"
        },
        {
          "internalType": "bool",
          "name": "guess",
          "type": "bool"
        },
        {
          "internalType": "bytes32",
          "name": "callback_image_id",
          "type": "bytes32"
        }
      ],
      "name": "call_me",
      "outputs": [
        {
          "internalType": "uint256",
          "name": "",
          "type": "uint256"
        },
        {
          "internalType": "bytes32",
          "name": "",
          "type": "bytes32"
        },
        {
          "internalType": "bool",
          "name": "",
          "type": "bool"
        }
      ],
      "stateMutability": "nonpayable",
      "type": "function"
    },
    {
      "inputs": [],
      "name": "counter",
      "outputs": [
        {
          "internalType": "uint256",
          "name": "",
          "type": "uint256"
        }
      ],
      "stateMutability": "view",
      "type": "function"
    }
  ],
  "bytecode": {
    "object": "0x608060405234801561001057600080fd5b506040516108c53803806108c58339818101604052810190610032919061016d565b33600360006101000a81548173ffffffffffffffffffffffffffffffffffffffff021916908373ffffffffffffffffffffffffffffffffffffffff1602179055508160028190555080600160006101000a81548173ffffffffffffffffffffffffffffffffffffffff021916908373ffffffffffffffffffffffffffffffffffffffff16021790555050506101ad565b600080fd5b6000819050919050565b6100da816100c7565b81146100e557600080fd5b50565b6000815190506100f7816100d1565b92915050565b600073ffffffffffffffffffffffffffffffffffffffff82169050919050565b6000610128826100fd565b9050919050565b600061013a8261011d565b9050919050565b61014a8161012f565b811461015557600080fd5b50565b60008151905061016781610141565b92915050565b60008060408385031215610184576101836100c2565b5b6000610192858286016100e8565b92505060206101a385828601610158565b9150509250929050565b610709806101bc6000396000f3fe608060405234801561001057600080fd5b50600436106100365760003560e01c806361bc221a1461003b578063a9828ea614610059575b600080fd5b61004361008b565b604051610050919061025f565b60405180910390f35b610073600480360381019061006e9190610319565b610091565b6040516100829392919061038a565b60405180910390f35b60005481565b6000806000600160009054906101000a900473ffffffffffffffffffffffffffffffffffffffff1673ffffffffffffffffffffffffffffffffffffffff163373ffffffffffffffffffffffffffffffffffffffff1614610126576040517f08c379a000000000000000000000000000000000000000000000000000000000815260040161011d90610444565b60405180910390fd5b836002541461016a576040517f08c379a0000000000000000000000000000000000000000000000000000000008152600401610161906104b0565b60405180910390fd5b6101748686610183565b92509250925093509350939050565b60008060008060028660405160200161019c91906104f1565b6040516020818303038152906040526040516101b8919061057d565b602060405180830381855afa1580156101d5573d6000803e3d6000fd5b5050506040513d601f19601f820116820180604052508101906101f891906105a9565b905060008060028360001c61020d9190610605565b149050600086801561021c5750815b905060008081548092919061023090610665565b9190505583829550955095505050509250925092565b6000819050919050565b61025981610246565b82525050565b60006020820190506102746000830184610250565b92915050565b600080fd5b61028881610246565b811461029357600080fd5b50565b6000813590506102a58161027f565b92915050565b60008115159050919050565b6102c0816102ab565b81146102cb57600080fd5b50565b6000813590506102dd816102b7565b92915050565b6000819050919050565b6102f6816102e3565b811461030157600080fd5b50565b600081359050610313816102ed565b92915050565b6000806000606084860312156103325761033161027a565b5b600061034086828701610296565b9350506020610351868287016102ce565b925050604061036286828701610304565b9150509250925092565b610375816102e3565b82525050565b610384816102ab565b82525050565b600060608201905061039f6000830186610250565b6103ac602083018561036c565b6103b9604083018461037b565b949350505050565b600082825260208201905092915050565b7f6f6e6c792070726f787920636f6e747261637420697320616c6c6f776564206660008201527f6f722063616c6c6261636b000000000000000000000000000000000000000000602082015250565b600061042e602b836103c1565b9150610439826103d2565b604082019050919050565b6000602082019050818103600083015261045d81610421565b9050919050565b7f696d616765206964206d69736d61746368000000000000000000000000000000600082015250565b600061049a6011836103c1565b91506104a582610464565b602082019050919050565b600060208201905081810360008301526104c98161048d565b9050919050565b6000819050919050565b6104eb6104e682610246565b6104d0565b82525050565b60006104fd82846104da565b60208201915081905092915050565b600081519050919050565b600081905092915050565b60005b83811015610540578082015181840152602081019050610525565b60008484015250505050565b60006105578261050c565b6105618185610517565b9350610571818560208601610522565b80840191505092915050565b6000610589828461054c565b915081905092915050565b6000815190506105a3816102ed565b92915050565b6000602082840312156105bf576105be61027a565b5b60006105cd84828501610594565b91505092915050565b7f4e487b7100000000000000000000000000000000000000000000000000000000600052601260045260246000fd5b600061061082610246565b915061061b83610246565b92508261062b5761062a6105d6565b5b828206905092915050565b7f4e487b7100000000000000000000000000000000000000000000000000000000600052601160045260246000fd5b600061067082610246565b91507fffffffffffffffffffffffffffffffffffffffffffffffffffffffffffffffff82036106a2576106a1610636565b5b60018201905091905056fea2646970667358221220ccd89bbb91dd6cd4518401bdfac106b0d34566c93158040ccbbbe651373d665764736f6c637828302e382e31392d646576656c6f702e323032332e322e31382b636f6d6d69742e39373365646131370059",
    "linkReferences": {}
  },
  "methodIdentifiers": {
    "call_me(uint256,bool,bytes32)": "a9828ea6",
    "counter()": "61bc221a"
  },
  "id": 1
}