{
  "abi": [
    {
      "inputs": [
        {
          "internalType": "contract IBPN",
          "name": "bpn",
          "type": "address"
        }
      ],
      "stateMutability": "nonpayable",
      "type": "constructor"
    },
    {
      "anonymous": false,
      "inputs": [
        {
          "indexed": false,
          "internalType": "address",
          "name": "account",
          "type": "address"
        },
        {
          "indexed": false,
          "internalType": "bytes32",
          "name": "image_id",
          "type": "bytes32"
        },
        {
          "indexed": false,
          "internalType": "bytes",
          "name": "input",
          "type": "bytes"
        },
        {
          "indexed": false,
          "internalType": "address",
          "name": "callback_contract",
          "type": "address"
        },
        {
          "indexed": false,
          "internalType": "bytes4",
          "name": "function_selector",
          "type": "bytes4"
        },
        {
          "indexed": false,
          "internalType": "uint64",
          "name": "gas_limit",
          "type": "uint64"
        }
      ],
      "name": "CallbackRequest",
      "type": "event"
    },
    {
      "inputs": [],
      "name": "bpn_contract",
      "outputs": [
        {
          "internalType": "contract IBPN",
          "name": "",
          "type": "address"
        }
      ],
      "stateMutability": "view",
      "type": "function"
    },
    {
      "inputs": [
        {
          "internalType": "contract IBPN",
          "name": "bpn",
          "type": "address"
        }
      ],
      "name": "initialize",
      "outputs": [],
      "stateMutability": "nonpayable",
      "type": "function"
    },
    {
      "inputs": [
        {
          "components": [
            {
              "internalType": "address",
              "name": "callback_contract",
              "type": "address"
            },
            {
              "internalType": "bytes32[]",
              "name": "journal_inclusion_proof",
              "type": "bytes32[]"
            },
            {
              "internalType": "bytes",
              "name": "payload",
              "type": "bytes"
            },
            {
              "internalType": "uint64",
              "name": "gas_limit",
              "type": "uint64"
            }
          ],
          "internalType": "struct Proxy.Callback[]",
          "name": "callbacks",
          "type": "tuple[]"
        }
      ],
      "name": "invoke_callbacks",
      "outputs": [
        {
          "internalType": "bool[]",
          "name": "invocation_results",
          "type": "bool[]"
        }
      ],
      "stateMutability": "nonpayable",
      "type": "function"
    },
    {
      "inputs": [],
      "name": "owner",
      "outputs": [
        {
          "internalType": "address",
          "name": "",
          "type": "address"
        }
      ],
      "stateMutability": "view",
      "type": "function"
    },
    {
      "inputs": [
        {
          "internalType": "bytes32",
          "name": "image_id",
          "type": "bytes32"
        },
        {
          "internalType": "bytes",
          "name": "input",
          "type": "bytes"
        },
        {
          "internalType": "address",
          "name": "callback_contract",
          "type": "address"
        },
        {
          "internalType": "bytes4",
          "name": "function_selector",
          "type": "bytes4"
        },
        {
          "internalType": "uint64",
          "name": "gas_limit",
          "type": "uint64"
        }
      ],
      "name": "request_callback",
      "outputs": [],
      "stateMutability": "nonpayable",
      "type": "function"
    }
  ],
  "bytecode": {
    "object": "0x60806040523480156200001157600080fd5b506040516200107b3803806200107b8339818101604052810190620000379190620001c3565b62000048816200004f60201b60201c565b5062000278565b6000151560008054906101000a900460ff16151514620000a6576040517f08c379a00000000000000000000000000000000000000000000000000000000081526004016200009d9062000256565b60405180910390fd5b33600060016101000a81548173ffffffffffffffffffffffffffffffffffffffff021916908373ffffffffffffffffffffffffffffffffffffffff16021790555080600160006101000a81548173ffffffffffffffffffffffffffffffffffffffff021916908373ffffffffffffffffffffffffffffffffffffffff16021790555060016000806101000a81548160ff02191690831515021790555050565b600080fd5b600073ffffffffffffffffffffffffffffffffffffffff82169050919050565b600062000177826200014a565b9050919050565b60006200018b826200016a565b9050919050565b6200019d816200017e565b8114620001a957600080fd5b50565b600081519050620001bd8162000192565b92915050565b600060208284031215620001dc57620001db62000145565b5b6000620001ec84828501620001ac565b91505092915050565b600082825260208201905092915050565b7f636f6e747261637420616c726561647920696e697469616c697a656400000000600082015250565b60006200023e601c83620001f5565b91506200024b8262000206565b602082019050919050565b6000602082019050818103600083015262000271816200022f565b9050919050565b610df380620002886000396000f3fe608060405234801561001057600080fd5b50600436106100575760003560e01c80631497491f1461005c5780638da5cb5b1461008c578063a729f215146100aa578063c4d66de8146100c6578063d751cca8146100e2575b600080fd5b61007660048036038101906100719190610539565b610100565b6040516100839190610650565b60405180910390f35b610094610340565b6040516100a191906106b3565b60405180910390f35b6100c460048036038101906100bf919061081e565b610366565b005b6100e060048036038101906100db91906108f6565b6103b1565b005b6100ea6104a4565b6040516100f79190610982565b60405180910390f35b6060600060019054906101000a900473ffffffffffffffffffffffffffffffffffffffff1673ffffffffffffffffffffffffffffffffffffffff163373ffffffffffffffffffffffffffffffffffffffff1614610192576040517f08c379a0000000000000000000000000000000000000000000000000000000008152600401610189906109fa565b60405180910390fd5b8282905067ffffffffffffffff8111156101af576101ae610a1a565b5b6040519080825280602002602001820160405280156101dd5781602001602082028036833780820191505090505b50905060005b838390508110156103395783838281811061020157610200610a49565b5b90506020028101906102139190610a87565b60000160208101906102259190610aaf565b73ffffffffffffffffffffffffffffffffffffffff1684848381811061024e5761024d610a49565b5b90506020028101906102609190610a87565b60600160208101906102729190610adc565b67ffffffffffffffff1685858481811061028f5761028e610a49565b5b90506020028101906102a19190610a87565b80604001906102b09190610b09565b6040516102be929190610bab565b60006040518083038160008787f1925050503d80600081146102fc576040519150601f19603f3d011682016040523d82523d6000602084013e610301565b606091505b505082828151811061031657610315610a49565b5b60200260200101811515151581525050808061033190610bfd565b9150506101e3565b5092915050565b600060019054906101000a900473ffffffffffffffffffffffffffffffffffffffff1681565b7f105b7c9dbbc865638cd7873341700bcf4c62dfc9a4f221425b56fde3408f6a85338787878787876040516103a19796959493929190610cc1565b60405180910390a1505050505050565b6000151560008054906101000a900460ff16151514610405576040517f08c379a00000000000000000000000000000000000000000000000000000000081526004016103fc90610d77565b60405180910390fd5b33600060016101000a81548173ffffffffffffffffffffffffffffffffffffffff021916908373ffffffffffffffffffffffffffffffffffffffff16021790555080600160006101000a81548173ffffffffffffffffffffffffffffffffffffffff021916908373ffffffffffffffffffffffffffffffffffffffff16021790555060016000806101000a81548160ff02191690831515021790555050565b600160009054906101000a900473ffffffffffffffffffffffffffffffffffffffff1681565b600080fd5b600080fd5b600080fd5b600080fd5b600080fd5b60008083601f8401126104f9576104f86104d4565b5b8235905067ffffffffffffffff811115610516576105156104d9565b5b602083019150836020820283011115610532576105316104de565b5b9250929050565b600080602083850312156105505761054f6104ca565b5b600083013567ffffffffffffffff81111561056e5761056d6104cf565b5b61057a858286016104e3565b92509250509250929050565b600081519050919050565b600082825260208201905092915050565b6000819050602082019050919050565b60008115159050919050565b6105c7816105b2565b82525050565b60006105d983836105be565b60208301905092915050565b6000602082019050919050565b60006105fd82610586565b6106078185610591565b9350610612836105a2565b8060005b8381101561064357815161062a88826105cd565b9750610635836105e5565b925050600181019050610616565b5085935050505092915050565b6000602082019050818103600083015261066a81846105f2565b905092915050565b600073ffffffffffffffffffffffffffffffffffffffff82169050919050565b600061069d82610672565b9050919050565b6106ad81610692565b82525050565b60006020820190506106c860008301846106a4565b92915050565b6000819050919050565b6106e1816106ce565b81146106ec57600080fd5b50565b6000813590506106fe816106d8565b92915050565b60008083601f84011261071a576107196104d4565b5b8235905067ffffffffffffffff811115610737576107366104d9565b5b602083019150836001820283011115610753576107526104de565b5b9250929050565b61076381610692565b811461076e57600080fd5b50565b6000813590506107808161075a565b92915050565b60007fffffffff0000000000000000000000000000000000000000000000000000000082169050919050565b6107bb81610786565b81146107c657600080fd5b50565b6000813590506107d8816107b2565b92915050565b600067ffffffffffffffff82169050919050565b6107fb816107de565b811461080657600080fd5b50565b600081359050610818816107f2565b92915050565b60008060008060008060a0878903121561083b5761083a6104ca565b5b600061084989828a016106ef565b965050602087013567ffffffffffffffff81111561086a576108696104cf565b5b61087689828a01610704565b9550955050604061088989828a01610771565b935050606061089a89828a016107c9565b92505060806108ab89828a01610809565b9150509295509295509295565b60006108c382610692565b9050919050565b6108d3816108b8565b81146108de57600080fd5b50565b6000813590506108f0816108ca565b92915050565b60006020828403121561090c5761090b6104ca565b5b600061091a848285016108e1565b91505092915050565b6000819050919050565b600061094861094361093e84610672565b610923565b610672565b9050919050565b600061095a8261092d565b9050919050565b600061096c8261094f565b9050919050565b61097c81610961565b82525050565b60006020820190506109976000830184610973565b92915050565b600082825260208201905092915050565b7f44656e6965640000000000000000000000000000000000000000000000000000600082015250565b60006109e460068361099d565b91506109ef826109ae565b602082019050919050565b60006020820190508181036000830152610a13816109d7565b9050919050565b7f4e487b7100000000000000000000000000000000000000000000000000000000600052604160045260246000fd5b7f4e487b7100000000000000000000000000000000000000000000000000000000600052603260045260246000fd5b600080fd5b600080fd5b600080fd5b600082356001608003833603038112610aa357610aa2610a78565b5b80830191505092915050565b600060208284031215610ac557610ac46104ca565b5b6000610ad384828501610771565b91505092915050565b600060208284031215610af257610af16104ca565b5b6000610b0084828501610809565b91505092915050565b60008083356001602003843603038112610b2657610b25610a78565b5b80840192508235915067ffffffffffffffff821115610b4857610b47610a7d565b5b602083019250600182023603831315610b6457610b63610a82565b5b509250929050565b600081905092915050565b82818337600083830152505050565b6000610b928385610b6c565b9350610b9f838584610b77565b82840190509392505050565b6000610bb8828486610b86565b91508190509392505050565b7f4e487b7100000000000000000000000000000000000000000000000000000000600052601160045260246000fd5b6000819050919050565b6000610c0882610bf3565b91507fffffffffffffffffffffffffffffffffffffffffffffffffffffffffffffffff8203610c3a57610c39610bc4565b5b600182019050919050565b610c4e816106ce565b82525050565b600082825260208201905092915050565b6000601f19601f8301169050919050565b6000610c828385610c54565b9350610c8f838584610b77565b610c9883610c65565b840190509392505050565b610cac81610786565b82525050565b610cbb816107de565b82525050565b600060c082019050610cd6600083018a6106a4565b610ce36020830189610c45565b8181036040830152610cf6818789610c76565b9050610d0560608301866106a4565b610d126080830185610ca3565b610d1f60a0830184610cb2565b98975050505050505050565b7f636f6e747261637420616c726561647920696e697469616c697a656400000000600082015250565b6000610d61601c8361099d565b9150610d6c82610d2b565b602082019050919050565b60006020820190508181036000830152610d9081610d54565b905091905056fea2646970667358221220b9fd55804d948d5633483d1fbd3e58ca3037a718bd104b1f0956571522e7e4b064736f6c637828302e382e31392d646576656c6f702e323032332e322e31382b636f6d6d69742e39373365646131370059",
    "linkReferences": {}
  },
  "methodIdentifiers": {
    "bpn_contract()": "d751cca8",
    "initialize(address)": "c4d66de8",
    "invoke_callbacks((address,bytes32[],bytes,uint64)[])": "1497491f",
    "owner()": "8da5cb5b",
    "request_callback(bytes32,bytes,address,bytes4,uint64)": "a729f215"
  },
  "id": 3
}